:100000000C9447000C9471000C9471000C947100D6
:100010000C9471000C9471000C9471000C9471009C
:100020000C9471000C9471000C9471000C9471008C
:100030000C9471000C9471000C9471000C9471007C
:100040000C9471000C9471000C9473000C9471006A
:100050000C9471000C9471000C9471000C9471005C
:100060000C9471000C9471000C9471000C9471004C
:100070000C9471000C9471000C949A000C94710013
:100080000C9471000C9471000C947100D800112430
:100090001FBECFEFD0E1DEBFCDBF11E0A0E0B1E0E9
:1000A000E2EAF7E000E00BBF02C007900D92A63035
:1000B000B107D9F711E0A6E0B1E001C01D92A83167
:1000C000B107E1F710E0CEE8D0E004C02297FE01CE
:1000D0000E94CC03CC38D107C9F70E94C2000C940F
:1000E000D0030C9400001F920F920FB60F921124B0
:1000F0002F933F934F935F936F937F938F939F9330
:10010000AF93BF93EF93FF936CB18DE091E00E94AA
:10011000B201FF91EF91BF91AF919F918F917F912C
:100120006F915F914F913F912F910F900FBE0F9064
:100130001F9018951F920F920FB60F9211242F93B4
:100140003F934F935F936F937F938F939F93AF935F
:10015000BF93EF93FF9360919C0086E091E00E9433
:10016000B201FF91EF91BF91AF919F918F917F91DC
:100170006F915F914F913F912F910F900FBE0F9014
:100180001F901895CFEFD0E1DEBFCDBF789409C0A6
:100190008DE091E00E94B501682F8DE091E00E9412
:1001A0005A028DE091E00E94B901882389F3F9CFCA
:1001B00060E08DE091E00E948C0161E086E091E0DA
:1001C0000E948C010895FC01158214821382128210
:1001D000118210820895FC0115821482138212820A
:1001E00011821082089520E030E0FC018281938129
:1001F000892B11F421E030E0C90108951F93CF93BA
:10020000DF93EC01162F83E090E00E949402DC0162
:100210008A819B81892B19F4BB83AA8304C0EC815A
:10022000FD81B283A1831C93FD0112821182BD83E3
:10023000AC8388819981019699838883DF91CF91DE
:100240001F9108950F931F93CF93DF93EC01EA81E1
:10025000FB81309761F001811281CF010E9431034F
:100260001B830A8388819981019799838883DF9111
:10027000CF911F910F910895CF93DF93EC018A8165
:100280009B81892B39F0CE010E9422018A819B81BA
:10029000892BC9F7DF91CF910895FC018281938169
:1002A0000895FC01808191810895FF920F931F931F
:1002B0008C010E944D01FC01F080C8010E942201C6
:1002C0008F2D99271F910F91FF9008950F931F93E2
:1002D000CF938C01C62F0E94EB00F801C68383E305
:1002E00090E0CC2349F41092900089B988E98AB94A
:1002F0008EE0809395000CC0C13051F410929800AC
:100300008093990088E980939A008EE080939D0005
:10031000CF911F910F9108950F931F93CF938C014D
:10032000C62F0E94EB00F801C68383E390E0CC2344
:1003300049F41092900089B988E98AB98EE08093D7
:1003400095000CC0C13051F4109298008093990030
:1003500088E980939A008EE080939D00CF911F9151
:100360000F9108950E94FE0008950E94550199275B
:1003700008950E94F30099270895FC01868188233F
:1003800079F421E030E08BB1992755E09695879577
:100390005A95E1F78227932780FDF5CF6CB9089530
:1003A000813081F421E030E080919B00992745E085
:1003B000969587954A95E1F78227932780FDF4CF9C
:1003C00060939C0008954F925F926F927F928F92FC
:1003D0009F92AF92BF92CF92DF92EF92FF920F93D4
:1003E0001F93CF93DF932C017A018B0177FF0BC012
:1003F0006DE20E94BD0110950095F094E094E11C1F
:10040000F11C011D111D612C7AEC772E7AE9872EE3
:100410007BE3972E6FEFA62E69ECB62E6AE9C62E07
:100420006BE3D62EC0E0D0E0C801B701A401930170
:100430000E948D03CA01B9012AE030E040E050E09B
:100440000E948D03DC01CB01682FAE14BF04C006EF
:10045000D1061CF0C930D10521F4605DC2010E94B3
:10046000BD01C401B3012AE030E040E050E00E9449
:100470008D0339014A01C601B5012AE030E040E0B0
:1004800050E00E948D0359016A012196CA30D105BE
:100490005CF2DF91CF911F910F91FF90EF90DF9071
:1004A000CF90BF90AF909F908F907F906F905F9014
:1004B0004F9008950F931F938C01C8010E94BD01B6
:1004C000C8011F910F9108950F931F93CF93DF934E
:1004D0008C01EB018881882331F08991682FC80154
:1004E0000E94BD01F7CFC801DF91CF911F910F91FD
:1004F00008950F931F938C01C8010E94E301C80166
:100500001F910F9108950F931F938C01CB01AA2780
:1005100097FDA095BA2FAC01BD01C8010E94E3016F
:10052000C8011F910F910895CF93DF93AC010297FB
:1005300010F442E050E020E030E0A0911601B091CC
:100540001701BD01F901109709F44CC08D919C91E0
:1005500011978417950731F14817590738F4211579
:10056000310519F08217930708F49C01FD01A2815F
:10057000B381109759F721153105A1F1C901841BE9
:10058000950B049708F4A901DB01E0E0F0E0109777
:1005900049F18D919C91119782179307F9F44217B5
:1005A000530779F4ED018A819B81309719F0938389
:1005B000828304C09093170180931601CD010296A7
:1005C0004DC0241B350BFD01E20FF31F41935193E6
:1005D000225030402D933C93CF0140C0FD01A281B9
:1005E000B381D5CF8091140190911501892B41F4ED
:1005F0008091020190910301909315018093140161
:10060000E0910001F0910101309741F4EDB7FEB7A0
:100610008091040190910501E81BF90BA091140150
:10062000B0911501AE17BF07B8F49F012A1B3B0B11
:100630002417350788F0CA0102962817390760F099
:10064000CD01840F951F029690931501809314019C
:100650004D935D93CD0102C080E090E0DF91CF919A
:100660000895CF93DF93009709F454C0DC011297EB
:10067000ED011B821A82809116019091170100975B
:1006800021F1FC0140E050E0EA17FB0718F1ED0111
:10069000FB83EA832D913C911197C20FD31FCE01AA
:1006A00002968E179F0771F48A819B81280F391F4C
:1006B0002E5F3F4F11963C932E9382819381FD01D3
:1006C000938382834115510559F4B0931701A09388
:1006D000160120C0AF010280F381E02D3097A1F612
:1006E000EA01BB83AA83CA01029628813981820F5D
:1006F000931F8A179B0771F48D919C911197280F76
:10070000391F2E5F3F4F39832883FD0182819381FA
:100710009B838A83DF91CF91089597FB092E05264D
:100720000ED057FD04D014D00AD0001C38F45095D8
:100730004095309521953F4F4F4F5F4F0895F6F705
:1007400090958095709561957F4F8F4F9F4F08953D
:10075000A1E21A2EAA1BBB1BFD010DC0AA1FBB1FC5
:10076000EE1FFF1FA217B307E407F50720F0A21B37
:10077000B30BE40BF50B661F771F881F991F1A94A4
:1007800069F760957095809590959B01AC01BD01CE
:10079000CF010895EE0FFF1F0590F491E02D09940D
:0207A000FFCF89
:0607A20000001801200018
:00000001FF
