:100000000C942B000C9453000C9453000C9453004C
:100010000C9453000C9453000C9453000C94530014
:100020000C9453000C9453000C9453000C94530004
:100030000C9453000C9455000C9453000C945300F2
:100040000C9453000C9453000C9453000C945300E4
:100050000C945300AB0011241FBECFE5D8E0DEBFE7
:10006000CDBF10E0A0E6B0E0EAE6F4E002C0059003
:100070000D92A636B107D9F710E0A6E6B0E001C0B0
:100080001D92A037B107E1F710E0C6E5D0E004C04B
:100090002297FE010E943002C435D107C9F70E94A1
:1000A00096000C9434020C9400001F920F920FB62D
:1000B0000F9211242F933F934F935F936F937F93EE
:1000C0008F939F93AF93BF93EF93FF938CB1682F60
:1000D00086E690E00E94CB00FF91EF91BF91AF9137
:1000E0009F918F917F916F915F914F913F912F9150
:1000F0000F900FBE0F901F901895482F21E030E011
:100100008BB1992755E0969587955A95E1F7822707
:10011000932780FDF5CF4CB9089510BC83E390E0A0
:1001200089B988E98AB98EE880BD0895CFE5D8E01D
:10013000DEBFCDBF0E948D00789406C086E690E0B9
:100140000E9422010E947D0086E690E00E94C0008D
:100150008823A1F3F9CF86E690E00E94B8000895C5
:10016000FC0115821482138212821182108208957A
:10017000FC0115821482138212821182108208956A
:1001800020E030E0FC0182819381892B11F421E091
:1001900030E0C90108951F93CF93DF93EC01162F30
:1001A00083E090E00E943501DC018A819B81892BEC
:1001B00019F4BB83AA8304C0EC81FD81B283A183BF
:1001C0001C93FD0112821182BD83AC8388819981C9
:1001D000019699838883DF91CF911F9108950F93A2
:1001E0001F93CF93DF93EC01EA81FB81309761F09D
:1001F00001811281CF010E94D2011B830A83888171
:100200009981019799838883DF91CF911F910F91F5
:100210000895CF93DF93EC018A819B81892B39F07C
:10022000CE010E94EF008A819B81892BC9F7DF9163
:10023000CF910895FC01828193810895FC01808112
:1002400091810895FF920F931F938C010E941A01D0
:10025000FC01F080C8010E94EF008F2D992787FDD7
:1002600090951F910F91FF900895CF93DF93AC016C
:10027000029710F442E050E020E030E0A0916E00E0
:10028000B0916F00BD01F901109709F44CC08D9138
:100290009C9111978417950731F14817590738F445
:1002A0002115310519F08217930708F49C01FD010F
:1002B000A281B381109759F721153105A1F1C90128
:1002C000841B950B049708F4A901DB01E0E0F0E042
:1002D000109749F18D919C91119782179307F9F42A
:1002E0004217530779F4ED018A819B81309719F009
:1002F0009383828304C090936F0080936E00CD013E
:1003000002964DC0241B350BFD01E20FF31F4193F4
:100310005193225030402D933C93CF0140C0FD01BA
:10032000A281B381D5CF80916C0090916D00892B13
:1003300041F4809162009091630090936D008093EE
:100340006C00E0916000F0916100309741F4EDB7EE
:10035000FEB78091640090916500E81BF90BA091B5
:100360006C00B0916D00AE17BF07B8F49F012A1B57
:100370003B0B2417350788F0CA0102962817390766
:1003800060F0CD01840F951F029690936D008093CD
:100390006C004D935D93CD0102C080E090E0DF9151
:1003A000CF910895CF93DF93009709F454C0DC01F7
:1003B0001297ED011B821A8280916E0090916F005E
:1003C000009721F1FC0140E050E0EA17FB0718F12B
:1003D000ED01FB83EA832D913C911197C20FD31F4E
:1003E000CE0102968E179F0771F48A819B81280F98
:1003F000391F2E5F3F4F11963C932E93828193813C
:10040000FD01938382834115510559F4B0936F0028
:10041000A0936E0020C0AF010280F381E02D3097E1
:10042000A1F6EA01BB83AA83CA0102962881398119
:10043000820F931F8A179B0771F48D919C911197DE
:10044000280F391F2E5F3F4F39832883FD0182819A
:1004500093819B838A83DF91CF910895EE0FFF1FD5
:0A0460000590F491E02D0994FFCF00
:06046A00000070002000FC
:00000001FF
