:100000000C9447000C9471000C9471000C947100D6
:100010000C9471000C9471000C9471000C9471009C
:100020000C9471000C9471000C9471000C9471008C
:100030000C9471000C9471000C9471000C9471007C
:100040000C9471000C9471000C9473000C9471006A
:100050000C9471000C9471000C9471000C9471005C
:100060000C9471000C9471000C9471000C9471004C
:100070000C9471000C9471000C949B000C94710012
:100080000C9471000C9471000C9471001D011124EA
:100090001FBECFEFD0E1DEBFCDBF11E0A0E0B1E0E9
:1000A000E6E5F5E000E00BBF02C007900D92A63038
:1000B000B107D9F711E0A6E0B1E001C01D92A63169
:1000C000B107E1F710E0CEE8D0E004C02297FE01CE
:1000D0000E94A602CC38D107C9F70E94FB000C94FD
:1000E000AA020C9400001F920F920FB60F921124D7
:1000F0002F933F934F935F936F937F938F939F9330
:10010000AF93BF93EF93FF938CB1682F8CE091E096
:100110000E944101FF91EF91BF91AF919F918F910B
:100120007F916F915F914F913F912F910F900FBEF3
:100130000F901F9018951F920F920FB60F921124D7
:100140002F933F934F935F936F937F938F939F93DF
:10015000AF93BF93EF93FF9380919C00682F86E04D
:1001600091E00E944101FF91EF91BF91AF919F916A
:100170008F917F916F915F914F913F912F910F9050
:100180000FBE0F901F901895482F21E030E08BB1E3
:10019000992755E0969587955A95E1F782279327F9
:1001A00080FDF5CF4CB90895482F21E030E08091D3
:1001B0009B00992765E0969587956A95E1F78227D8
:1001C000932780FDF4CF40939C00089523E330E013
:1001D00080E090E0809390008093980029B920936C
:1001E000990088E98AB980939A008EE080939500FF
:1001F00080939D000895CFEFD0E1DEBFCDBF0E9478
:10020000E600789406C08CE091E00E9498010E947C
:10021000D4008CE091E00E9436018823A1F306C04F
:1002200086E091E00E9498010E94C40086E091E07F
:100230000E9436018823A1F3ECCF8CE091E00E946C
:100240002E0186E091E00E942E010895FC011582A6
:10025000148213821282118210820895FC01158289
:1002600014821382128211821082089520E030E0FD
:10027000FC0182819381892B11F421E030E0C901D6
:1002800008951F93CF93DF93EC01162F83E090E046
:100290000E94AB01DC018A819B81892B19F4BB830D
:1002A000AA8304C0EC81FD81B283A1831C93FD016C
:1002B00012821182BD83AC838881998101969983D2
:1002C0008883DF91CF911F9108950F931F93CF9350
:1002D000DF93EC01EA81FB81309761F001811281AB
:1002E000CF010E9448021B830A838881998101976C
:1002F00099838883DF91CF911F910F910895CF93B8
:10030000DF93EC018A819B81892B39F0CE010E9419
:1003100065018A819B81892BC9F7DF91CF9108956F
:10032000FC01828193810895FC018081918108956F
:10033000FF920F931F938C010E949001FC01F080AB
:10034000C8010E9465018F2D992787FD90951F9107
:100350000F91FF900895CF93DF93AC01029710F4B3
:1003600042E050E020E030E0A0911401B09115018E
:10037000BD01F901109709F44CC08D919C91119722
:100380008417950731F14817590738F421153105BD
:1003900019F08217930708F49C01FD01A281B38133
:1003A000109759F721153105A1F1C901841B950B4F
:1003B000049708F4A901DB01E0E0F0E0109749F1AF
:1003C0008D919C91119782179307F9F44217530767
:1003D00079F4ED018A819B81309719F093838283B0
:1003E00004C09093150180931401CD0102964DC075
:1003F000241B350BFD01E20FF31F41935193225053
:1004000030402D933C93CF0140C0FD01A281B381C8
:10041000D5CF8091120190911301892B41F48091E5
:100420000201909103019093130180931201E091D6
:100430000001F0910101309741F4EDB7FEB78091D2
:10044000040190910501E81BF90BA0911201B091F4
:100450001301AE17BF07B8F49F012A1B3B0B2417EB
:10046000350788F0CA0102962817390760F0CD01D8
:10047000840F951F029690931301809312014D9360
:100480005D93CD0102C080E090E0DF91CF910895AF
:10049000CF93DF93009709F454C0DC011297ED016C
:1004A0001B821A828091140190911501009721F10D
:1004B000FC0140E050E0EA17FB0718F1ED01FB8377
:1004C000EA832D913C911197C20FD31FCE01029662
:1004D0008E179F0771F48A819B81280F391F2E5F29
:1004E0003F4F11963C932E9382819381FD0193831C
:1004F00082834115510559F4B0931501A09314015D
:1005000020C0AF010280F381E02D3097A1F6EA010F
:10051000BB83AA83CA01029628813981820F931F67
:100520008A179B0771F48D919C911197280F391FA1
:100530002E5F3F4F39832883FD01828193819B8306
:100540008A83DF91CF910895EE0FFF1F0590F491FC
:06055000E02D0994FFCF2D
:0605560000001601200068
:00000001FF
