:100000000C944B000C9475000C9475000C947500C6
:100010000C9475000C9475000C9475000C9475008C
:100020000C9475000C9475000C9475000C9475007C
:100030000C9475000C9475000C9475000C9475006C
:100040000C9475000C9475000C9481000C94750050
:100050000C9475000C9475000C9475000C9475004C
:100060000C9475000C9475000C9475000C9475003C
:100070000C9475000C9475000C94A9000C947500F8
:100080000C9475000C9475000C94750000150E15F9
:100090000E150000610111241FBECFEFD0E1DEBFBD
:1000A000CDBF11E0A0E0B1E0E4E7F9E000E00BBF74
:1000B00002C007900D92AC31B107D9F711E0ACE165
:1000C000B1E001C01D92AC32B107E1F710E0C6E922
:1000D000D0E004C02297FE010E94B504C439D107C4
:1000E000C9F70E9409010C94B9040C94000020ED9A
:1000F00037E080E991E00197F1F721503040C9F7EE
:1001000008951F920F920FB60F9211242F933F93D1
:100110004F935F936F937F938F939F93AF93BF930F
:10012000EF93FF938CB1682F82E291E00E9450031D
:10013000FF91EF91BF91AF919F918F917F916F91BF
:100140005F914F913F912F910F900FBE0F901F9095
:1001500018951F920F920FB60F9211242F933F9371
:100160004F935F936F937F938F939F93AF93BF93BF
:10017000EF93FF9380919C00682F8CE191E00E94A7
:100180005003FF91EF91BF91AF919F918F917F911C
:100190006F915F914F913F912F910F900FBE0F90F4
:1001A0001F901895482F21E030E08BB1992755E03A
:1001B000969587955A95E1F78227932780FDF5CF8D
:1001C0004CB90895482F21E030E080919B00992799
:1001D00065E0969587956A95E1F78227932780FDDC
:1001E000F4CF40939C00089523E330E080E090E05A
:1001F000809390008093980029B92093990088E912
:100200008AB980939A008EE08093950080939D0038
:100210000895CFEFD0E1DEBFCDBF0E94F4000E9471
:100220006A010E94BB0260E08CE890E00E940F032C
:1002300061E080E00E946C026FE080E091E00E944B
:100240004D02FF2400E010E060E0862F0E946C0267
:10025000C0E00115110549F080E20E940802CF5F5D
:100260008C2F992780179107B8F360E08F2D0E949B
:100270006C0265E080E191E00E944D0280E20E9404
:1002800008020E947700F3940F5F1F4F8AE08F15DA
:10029000D8F619E060E0812F0E946C0265E080E1F1
:1002A00091E00E944D02C12FCA5FC03128F480E264
:1002B0000E940802CF5FF9CF0E947700115051F7DA
:1002C000C0CF82E291E00E943D038CE191E00E9468
:1002D0003D03089580E69AEE0197F1F71BBA1BBA29
:1002E0008AB38C638ABB8AB383608ABB8BB38C600E
:1002F0008BBBD99AE0EAFFE0CF010197F1F7D998DB
:1003000080E29EE40197F1F78BB38C608BBBD99AA6
:10031000CF010197F1F7D998CF010197F1F78BB38E
:100320008C608BBBD99ACF010197F1F7D998CF0197
:100330000197F1F78BB388708BBBD99ACF010197E6
:10034000F1F7D998CF010197F1F7DB9AD99ACF014C
:100350000197F1F7D998CF010197F1F7DD9AD99A72
:10036000CF010197F1F7D998CF010197F1F78BB33E
:100370001BBAD99ACF010197F1F7D998CF0101970C
:10038000F1F7DD9AD99ACF010197F1F7D998CF010A
:100390000197F1F78BB31BBAD99ACF010197F1F707
:1003A000D998CF010197F1F7DA9AD99ACF0101973D
:1003B000F1F7D998CF010197F1F78BB31BBAD99A0E
:1003C000CF010197F1F7D998CF010197F1F78BB3DE
:1003D00088618BBBD99ACF010197F1F7D998CF01EA
:1003E0000197F1F78BB31BBAD99ACF010197F1F7B7
:1003F000D998CF010197F1F78BB38C638BBBD99A56
:10040000CF010197F1F7D998CF010197F1F708953E
:10041000982F869586958C738BBB8BB383608BBB33
:10042000E0EAFFE0DF011197F1F78BB31BBADF01C0
:100430001197F1F7990F990F9C739BBB8BB3836056
:100440008BBBCF010197F1F78BB31BBACF0101979B
:10045000F1F70895282F869586958C738BBBD99AD2
:1004600080EA9FE0FC013197F1F7D998FC013197C0
:10047000F1F7220F220F2C732BBBD99AFC01319775
:10048000F1F7D9980197F1F7089581E00E942A02C7
:10049000089582E00E942A020895EF92FF921F932E
:1004A000CF93DF937C01892B89F010E0C62FDD27E5
:1004B000209761F0F701E10FF11D80810E94080291
:1004C0001F5F812F99278C179D07A0F3DF91CF9194
:1004D0001F91FF90EF900895282F862F9927813044
:1004E000910549F0823091057CF08230910531F020
:1004F000039739F009C0822F805C07C0822F8C5E81
:1005000004C0822F8C5A01C0822F80680E942A0268
:1005100008951F93CF93DF9310E0C82FDD27209716
:1005200049F08EE10E942A021F5F812F99278C17C4
:100530009D07B8F3DF91CF911F9108951F93CF933B
:10054000DF9310E0C82FDD27209749F088E10E9453
:100550002A021F5F812F99278C179D07B8F3DF911F
:10056000CF911F9108958EE00E942A0208958FE096
:100570000E942A0208958CE00E942A02089588E0D1
:100580000E942A0208958CE00E942A0208951F9377
:10059000CF93DF9310E0C82FDD27209749F080E14B
:1005A0000E942A021F5F812F99278C179D07B8F39D
:1005B000DF91CF911F9108951F93CF93DF9310E0A8
:1005C000C82FDD27209749F084E10E942A021F5F8F
:1005D000812F99278C179D07B8F3DF91CF911F9139
:1005E00008951F93CF93DF93EC01862F642F0E9411
:1005F0006C0210E0FE018491882369F0FE01E10F96
:10060000F11D84910E9408021F5FFE01E10FF11DA0
:100610008491882399F7DF91CF911F910895EF92EC
:10062000FF921F93CF93DF93262F332743E0220FB0
:10063000331F4A95E1F7122F1064EC0187E0E82E92
:10064000F12CEC0EFD1E812F1F5F0E942A02FE017D
:1006500084910E9408022196EC16FD06A0F7DF9116
:10066000CF911F91FF90EF900895FC0115821482A5
:1006700013821282118210820895FC011582148265
:100680001382128211821082089520E030E0FC0172
:1006900082819381892B11F421E030E0C901089512
:1006A0001F93CF93DF93EC01162F83E090E00E941D
:1006B000BA03DC018A819B81892B19F4BB83AA834D
:1006C00004C0EC81FD81B283A1831C93FD011282E1
:1006D0001182BD83AC838881998101969983888337
:1006E000DF91CF911F9108950F931F93CF93DF93C5
:1006F000EC01EA81FB81309761F001811281CF0129
:100700000E9457041B830A838881998101979983EA
:100710008883DF91CF911F910F910895CF93DF933D
:10072000EC018A819B81892B39F0CE010E947403F0
:100730008A819B81892BC9F7DF91CF910895FC01B4
:10074000828193810895FC01808191810895FF92B7
:100750000F931F938C010E949F03FC01F080C8013E
:100760000E9474038F2D992787FD90951F910F91FB
:10077000FF900895CF93DF93AC01029710F442E00D
:1007800050E020E030E0A0912A01B0912B01BD01A2
:10079000F901109709F44CC08D919C911197841721
:1007A000950731F14817590738F42115310519F02B
:1007B0008217930708F49C01FD01A281B381109771
:1007C00059F721153105A1F1C901841B950B049737
:1007D00008F4A901DB01E0E0F0E0109749F18D9108
:1007E0009C91119782179307F9F44217530779F4F4
:1007F000ED018A819B81309719F09383828304C035
:1008000090932B0180932A01CD0102964DC0241BA9
:10081000350BFD01E20FF31F4193519322503040FD
:100820002D933C93CF0140C0FD01A281B381D5CF70
:100830008091280190912901892B41F48091180120
:10084000909119019093290180932801E09116015C
:10085000F0911701309741F4EDB7FEB780911A017E
:1008600090911B01E81BF90BA0912801B09129017F
:10087000AE17BF07B8F49F012A1B3B0B241735079F
:1008800088F0CA0102962817390760F0CD01840F5D
:10089000951F029690932901809328014D935D93B3
:1008A000CD0102C080E090E0DF91CF910895CF9319
:1008B000DF93009709F454C0DC011297ED011B820D
:1008C0001A8280912A0190912B01009721F1FC015D
:1008D00040E050E0EA17FB0718F1ED01FB83EA83E3
:1008E0002D913C911197C20FD31FCE0102968E1706
:1008F0009F0771F48A819B81280F391F2E5F3F4F1C
:1009000011963C932E9382819381FD019383828380
:100910004115510559F4B0932B01A0932A0120C031
:10092000AF010280F381E02D3097A1F6EA01BB838D
:10093000AA83CA01029628813981820F931F8A17E0
:100940009B0771F48D919C911197280F391F2E5F91
:100950003F4F39832883FD01828193819B838A8362
:10096000DF91CF910895EE0FFF1F0590F491E02DD8
:040970000994FFCF18
:100974007777772E796179657465652E636F6D007D
:0C09840050494153540000002C01200099
:00000001FF
