:100000000C9447000C9471000C9471000C947100D6
:100010000C9471000C9471000C9471000C9471009C
:100020000C9471000C9471000C9471000C9471008C
:100030000C9471000C9471000C9471000C9471007C
:100040000C9471000C9471000C9473000C9471006A
:100050000C9471000C9471000C9471000C9471005C
:100060000C9471000C9471000C9471000C9471004C
:100070000C9471000C9471000C949C000C94710011
:100080000C9471000C9471000C947100D000112438
:100090001FBECFEFD0E1DEBFCDBF11E0A0E0B1E0E9
:1000A000E0E6FAE000E00BBF02C007900D92A63038
:1000B000B107D9F711E0A6E0B1E001C01D92A4326A
:1000C000B107E1F710E0CEE8D0E004C02297FE01CE
:1000D0000E942B05CC38D107C9F70E94C6000C94AA
:1000E0002F050C9400001F920F920FB60F9211244F
:1000F0002F933F934F935F936F937F938F939F9330
:10010000AF93BF93EF93FF938CB19927682F83E14F
:1001100091E00E94B201FF91EF91BF91AF919F9149
:100120008F917F916F915F914F913F912F910F90A0
:100130000FBE0F901F9018951F920F920FB60F923F
:1001400011242F933F934F935F936F937F938F93DC
:100150009F93AF93BF93EF93FF9380919C00992758
:10016000682F86E091E00E94B201FF91EF91BF916C
:10017000AF919F918F917F916F915F914F913F913F
:100180002F910F900FBE0F901F901895CFEFD0E1D9
:10019000DEBFCDBF78940E94B2030E947B03FFCFE5
:1001A00060E083E191E00E94880161E086E091E0F7
:1001B0000E9488010895FC01158214821382128224
:1001C000118210820895FC0115821482138212821A
:1001D00011821082089520E030E0FC018281938139
:1001E000892B11F421E030E0C90108951F93CF93CA
:1001F000DF93EC01162F83E090E00E94F303DC0113
:100200008A819B81892B19F4BB83AA8304C0EC816A
:10021000FD81B283A1831C93FD0112821182BD83F3
:10022000AC8388819981019699838883DF91CF91EE
:100230001F9108950F931F93CF93DF93EC01EA81F1
:10024000FB81309761F001811281CF010E949004FF
:100250001B830A8388819981019799838883DF9121
:10026000CF911F910F910895CF93DF93EC018A8175
:100270009B81892B39F0CE010E941A018A819B81D2
:10028000892BC9F7DF91CF910895FC018281938179
:100290000895FC01808191810895FF920F931F932F
:1002A0008C010E944501FC01F080C8010E941A01E6
:1002B0008F2D99271F910F91FF9008950F931F93F2
:1002C000CF938C01C62F0E94E300C80106960E94BE
:1002D000E300F801C48783E390E0CC2349F4109253
:1002E000900089B988E98AB98EE0809395000CC0A6
:1002F000C13051F4109298008093990088E980935E
:100300009A008EE080939D00CF911F910F910895E8
:100310000F931F93CF938C01C62F0E94E300C80157
:1003200006960E94E300F801C48783E390E0CC23A3
:1003300049F41092900089B988E98AB98EE08093D7
:1003400095000CC0C13051F4109298008093990030
:1003500088E980939A008EE080939D00CF911F9151
:100360000F9108950E94F60008950E944D0199276B
:1003700008950E94EB0099270895FC018485882345
:1003800079F421E030E08BB1992755E09695879577
:100390005A95E1F78227932780FDF5CF6CB9089530
:1003A000813081F421E030E080919B00992745E085
:1003B000969587954A95E1F78227932780FDF4CF9C
:1003C00060939C0008954F925F926F927F928F92FC
:1003D0009F92AF92BF92CF92DF92EF92FF920F93D4
:1003E0001F93CF93DF932C017A018B0177FF0BC012
:1003F0006DE20E94BD0110950095F094E094E11C1F
:10040000F11C011D111D612C7AEC772E7AE9872EE3
:100410007BE3972E6FEFA62E69ECB62E6AE9C62E07
:100420006BE3D62EC0E0D0E0C801B701A401930170
:100430000E94EC04CA01B9012AE030E040E050E03B
:100440000E94EC04DC01CB01682FAE14BF04C0068F
:10045000D1061CF0C930D10521F4605DC2010E94B3
:10046000BD01C401B3012AE030E040E050E00E9449
:10047000EC0439014A01C601B5012AE030E040E050
:1004800050E00E94EC0459016A012196CA30D1055E
:100490005CF2DF91CF911F910F91FF90EF90DF9071
:1004A000CF90BF90AF909F908F907F906F905F9014
:1004B0004F9008950F931F938C01C8010E94BD01B6
:1004C000C8011F910F9108950F931F938C01C801CC
:1004D0000E94BD01C8011F910F9108950F931F93B2
:1004E000CF93DF938C01EB018881882331F08991D0
:1004F000682FC8010E94BD01F7CFC801DF91CF91DD
:100500001F910F9108950F931F938C01C8010E94B2
:10051000E301C8011F910F9108950F931F938C0160
:10052000CB01AA2797FDA095BA2FAC01BD01C80148
:100530000E94E301C8011F910F910895EF92FF926D
:100540000F931F937C018B010E94B501F8018083FA
:10055000C7011F910F91FF90EF900895CF92DF9206
:10056000EF92FF920F931F93CF93DF938C017B0148
:100570000E94B501982FC0E0D0E0A1E0CA2ED12C96
:100580008D3221F4FFEFCF2EDF2E06C080538A304C
:1005900018F4C92FDD27E097C8010E94EB008823DB
:1005A000D9F7C8010E944D01282F8A3069F0CE0189
:1005B000E3E0880F991FEA95E1F78C0F9D1FC80FA4
:1005C000D91FC20FD11DE7CFCC9DC001CD9D900D8D
:1005D000DC9D900D1124F70191838083C801DF9188
:1005E000CF911F910F91FF90EF90DF90CF900895E2
:1005F00020E030E040E050E0261737074807590771
:100600005CF4EFE1F3E000003197F7FFFCCF2F5FE0
:100610003F4F4F4F5F4FF0CF08958BB38BBB67FFBA
:1006200003C08BB3856002C08BB38A7F8BBB7727F7
:10063000CB01F6E096958795FA95E1F78170907079
:10064000882311F0DA9A01C0DA98CB01E5E096959B
:100650008795EA95E1F781709070882319F08BB344
:10066000836002C08BB38C7F8BBBCB0154E096952B
:1006700087955A95E1F781709070882311F0D99A87
:1006800001C0D998D89AD898CB0143E09695879520
:100690004A95E1F781709070882319F08BB38560DB
:1006A00002C08BB38A7F8BBBCB01969587959695BD
:1006B000879581709070882311F0DA9A01C0DA98DA
:1006C000CB019695879581709070882319F08BB334
:1006D000836002C08BB38C7F8BBB617070706623AC
:1006E00011F0D99A01C0D998D89AD89880E197E2A8
:1006F0000197F1F7089561E080E00E940D0380E426
:100700009CE90197F1F70895962F682F6150923078
:1007100011F4605401C0605880E00E940D030895F8
:10072000CF93DF93EC018881882341F08991682F72
:1007300081E00E940D0388818823C1F7DF91CF916A
:100740000895CF93DF93EC018881882341F089914C
:10075000682F81E00E940D0388818823C1F7DF9113
:10076000CF9108950F931F931BBA8FE38ABB2CEA96
:100770003DE088EC90E00197F1F721503040C9F757
:1007800089E08BBBD89AD89800E41CE9C80101978E
:10079000F1F7D89AD898C8010197F1F7D89AD89864
:1007A000C8010197F1F784E08BBBD89AD898C801AB
:1007B0000197F1F768E280E00E940D036CE080E0B1
:1007C0000E940D0361E080E00E940D03C8010197C3
:1007D000F1F766E080E00E940D03C8010197F1F790
:1007E0001F910F910895CF93DF93AC01029710F4FE
:1007F00042E050E020E030E0A0912201B0912301DE
:10080000BD01F901109709F44CC08D919C9111978D
:100810008417950731F14817590738F42115310528
:1008200019F08217930708F49C01FD01A281B3819E
:10083000109759F721153105A1F1C901841B950BBA
:10084000049708F4A901DB01E0E0F0E0109749F11A
:100850008D919C91119782179307F9F442175307D2
:1008600079F4ED018A819B81309719F0938382831B
:1008700004C09093230180932201CD0102964DC0C4
:10088000241B350BFD01E20FF31F419351932250BE
:1008900030402D933C93CF0140C0FD01A281B38134
:1008A000D5CF8091200190912101892B41F4809135
:1008B0000201909103019093210180932001E09126
:1008C0000001F0910101309741F4EDB7FEB780913E
:1008D000040190910501E81BF90BA0912001B09152
:1008E0002101AE17BF07B8F49F012A1B3B0B241749
:1008F000350788F0CA0102962817390760F0CD0144
:10090000840F951F029690932101809320014D93AF
:100910005D93CD0102C080E090E0DF91CF9108951A
:10092000CF93DF93009709F454C0DC011297ED01D7
:100930001B821A828091220190912301009721F15C
:10094000FC0140E050E0EA17FB0718F1ED01FB83E2
:10095000EA832D913C911197C20FD31FCE010296CD
:100960008E179F0771F48A819B81280F391F2E5F94
:100970003F4F11963C932E9382819381FD01938387
:1009800082834115510559F4B0932301A0932201AC
:1009900020C0AF010280F381E02D3097A1F6EA017B
:1009A000BB83AA83CA01029628813981820F931FD3
:1009B0008A179B0771F48D919C911197280F391F0D
:1009C0002E5F3F4F39832883FD01828193819B8372
:1009D0008A83DF91CF91089597FB092E05260ED0CB
:1009E00057FD04D014D00AD0001C38F4509540951F
:1009F000309521953F4F4F4F5F4F0895F6F79095F3
:100A00008095709561957F4F8F4F9F4F0895A1E21C
:100A10001A2EAA1BBB1BFD010DC0AA1FBB1FEE1F78
:100A2000FF1FA217B307E407F50720F0A21BB30BC3
:100A3000E40BF50B661F771F881F991F1A9469F73F
:100A400060957095809590959B01AC01BD01CF019B
:100A50000895EE0FFF1F0590F491E02D0994FFCF4C
:060A60000000240120004B
:00000001FF
